{
    "contractName": "MyNFT",
    "abi": [
        {
            "inputs": [
                {
                    "internalType": "string",
                    "name": "_name",
                    "type": "string"
                },
                {
                    "internalType": "string",
                    "name": "_symbol",
                    "type": "string"
                },
                {
                    "internalType": "string",
                    "name": "_initBaseURI",
                    "type": "string"
                },
                {
                    "internalType": "string",
                    "name": "_initNotRevealedUri",
                    "type": "string"
                }
            ],
            "stateMutability": "nonpayable",
            "type": "constructor"
        },
        {
            "anonymous": false,
            "inputs": [
                {
                    "indexed": true,
                    "internalType": "address",
                    "name": "owner",
                    "type": "address"
                },
                {
                    "indexed": true,
                    "internalType": "address",
                    "name": "approved",
                    "type": "address"
                },
                {
                    "indexed": true,
                    "internalType": "uint256",
                    "name": "tokenId",
                    "type": "uint256"
                }
            ],
            "name": "Approval",
            "type": "event"
        },
        {
            "anonymous": false,
            "inputs": [
                {
                    "indexed": true,
                    "internalType": "address",
                    "name": "owner",
                    "type": "address"
                },
                {
                    "indexed": true,
                    "internalType": "address",
                    "name": "operator",
                    "type": "address"
                },
                {
                    "indexed": false,
                    "internalType": "bool",
                    "name": "approved",
                    "type": "bool"
                }
            ],
            "name": "ApprovalForAll",
            "type": "event"
        },
        {
            "anonymous": false,
            "inputs": [
                {
                    "indexed": true,
                    "internalType": "address",
                    "name": "previousOwner",
                    "type": "address"
                },
                {
                    "indexed": true,
                    "internalType": "address",
                    "name": "newOwner",
                    "type": "address"
                }
            ],
            "name": "OwnershipTransferred",
            "type": "event"
        },
        {
            "anonymous": false,
            "inputs": [
                {
                    "indexed": true,
                    "internalType": "address",
                    "name": "from",
                    "type": "address"
                },
                {
                    "indexed": true,
                    "internalType": "address",
                    "name": "to",
                    "type": "address"
                },
                {
                    "indexed": true,
                    "internalType": "uint256",
                    "name": "tokenId",
                    "type": "uint256"
                }
            ],
            "name": "Transfer",
            "type": "event"
        },
        {
            "inputs": [
                {
                    "internalType": "address",
                    "name": "to",
                    "type": "address"
                },
                {
                    "internalType": "uint256",
                    "name": "tokenId",
                    "type": "uint256"
                }
            ],
            "name": "approve",
            "outputs": [],
            "stateMutability": "nonpayable",
            "type": "function"
        },
        {
            "inputs": [
                {
                    "internalType": "address",
                    "name": "owner",
                    "type": "address"
                }
            ],
            "name": "balanceOf",
            "outputs": [
                {
                    "internalType": "uint256",
                    "name": "",
                    "type": "uint256"
                }
            ],
            "stateMutability": "view",
            "type": "function"
        },
        {
            "inputs": [],
            "name": "baseExtension",
            "outputs": [
                {
                    "internalType": "string",
                    "name": "",
                    "type": "string"
                }
            ],
            "stateMutability": "view",
            "type": "function"
        },
        {
            "inputs": [],
            "name": "cost",
            "outputs": [
                {
                    "internalType": "uint256",
                    "name": "",
                    "type": "uint256"
                }
            ],
            "stateMutability": "view",
            "type": "function"
        },
        {
            "inputs": [
                {
                    "internalType": "uint256",
                    "name": "tokenId",
                    "type": "uint256"
                }
            ],
            "name": "getApproved",
            "outputs": [
                {
                    "internalType": "address",
                    "name": "",
                    "type": "address"
                }
            ],
            "stateMutability": "view",
            "type": "function"
        },
        {
            "inputs": [
                {
                    "internalType": "address",
                    "name": "owner",
                    "type": "address"
                },
                {
                    "internalType": "address",
                    "name": "operator",
                    "type": "address"
                }
            ],
            "name": "isApprovedForAll",
            "outputs": [
                {
                    "internalType": "bool",
                    "name": "",
                    "type": "bool"
                }
            ],
            "stateMutability": "view",
            "type": "function"
        },
        {
            "inputs": [],
            "name": "maxMintAmount",
            "outputs": [
                {
                    "internalType": "uint256",
                    "name": "",
                    "type": "uint256"
                }
            ],
            "stateMutability": "view",
            "type": "function"
        },
        {
            "inputs": [],
            "name": "maxSupply",
            "outputs": [
                {
                    "internalType": "uint256",
                    "name": "",
                    "type": "uint256"
                }
            ],
            "stateMutability": "view",
            "type": "function"
        },
        {
            "inputs": [
                {
                    "internalType": "uint256",
                    "name": "_mintAmount",
                    "type": "uint256"
                }
            ],
            "name": "mint",
            "outputs": [],
            "stateMutability": "payable",
            "type": "function"
        },
        {
            "inputs": [],
            "name": "name",
            "outputs": [
                {
                    "internalType": "string",
                    "name": "",
                    "type": "string"
                }
            ],
            "stateMutability": "view",
            "type": "function"
        },
        {
            "inputs": [],
            "name": "notRevealedUri",
            "outputs": [
                {
                    "internalType": "string",
                    "name": "",
                    "type": "string"
                }
            ],
            "stateMutability": "view",
            "type": "function"
        },
        {
            "inputs": [],
            "name": "owner",
            "outputs": [
                {
                    "internalType": "address",
                    "name": "",
                    "type": "address"
                }
            ],
            "stateMutability": "view",
            "type": "function"
        },
        {
            "inputs": [
                {
                    "internalType": "uint256",
                    "name": "tokenId",
                    "type": "uint256"
                }
            ],
            "name": "ownerOf",
            "outputs": [
                {
                    "internalType": "address",
                    "name": "",
                    "type": "address"
                }
            ],
            "stateMutability": "view",
            "type": "function"
        },
        {
            "inputs": [
                {
                    "internalType": "bool",
                    "name": "_state",
                    "type": "bool"
                }
            ],
            "name": "pause",
            "outputs": [],
            "stateMutability": "nonpayable",
            "type": "function"
        },
        {
            "inputs": [],
            "name": "paused",
            "outputs": [
                {
                    "internalType": "bool",
                    "name": "",
                    "type": "bool"
                }
            ],
            "stateMutability": "view",
            "type": "function"
        },
        {
            "inputs": [],
            "name": "renounceOwnership",
            "outputs": [],
            "stateMutability": "nonpayable",
            "type": "function"
        },
        {
            "inputs": [],
            "name": "reveal",
            "outputs": [],
            "stateMutability": "nonpayable",
            "type": "function"
        },
        {
            "inputs": [],
            "name": "revealed",
            "outputs": [
                {
                    "internalType": "bool",
                    "name": "",
                    "type": "bool"
                }
            ],
            "stateMutability": "view",
            "type": "function"
        },
        {
            "inputs": [
                {
                    "internalType": "address",
                    "name": "from",
                    "type": "address"
                },
                {
                    "internalType": "address",
                    "name": "to",
                    "type": "address"
                },
                {
                    "internalType": "uint256",
                    "name": "tokenId",
                    "type": "uint256"
                }
            ],
            "name": "safeTransferFrom",
            "outputs": [],
            "stateMutability": "nonpayable",
            "type": "function"
        },
        {
            "inputs": [
                {
                    "internalType": "address",
                    "name": "from",
                    "type": "address"
                },
                {
                    "internalType": "address",
                    "name": "to",
                    "type": "address"
                },
                {
                    "internalType": "uint256",
                    "name": "tokenId",
                    "type": "uint256"
                },
                {
                    "internalType": "bytes",
                    "name": "_data",
                    "type": "bytes"
                }
            ],
            "name": "safeTransferFrom",
            "outputs": [],
            "stateMutability": "nonpayable",
            "type": "function"
        },
        {
            "inputs": [
                {
                    "internalType": "address",
                    "name": "operator",
                    "type": "address"
                },
                {
                    "internalType": "bool",
                    "name": "approved",
                    "type": "bool"
                }
            ],
            "name": "setApprovalForAll",
            "outputs": [],
            "stateMutability": "nonpayable",
            "type": "function"
        },
        {
            "inputs": [
                {
                    "internalType": "string",
                    "name": "_newBaseExtension",
                    "type": "string"
                }
            ],
            "name": "setBaseExtension",
            "outputs": [],
            "stateMutability": "nonpayable",
            "type": "function"
        },
        {
            "inputs": [
                {
                    "internalType": "string",
                    "name": "_newBaseURI",
                    "type": "string"
                }
            ],
            "name": "setBaseURI",
            "outputs": [],
            "stateMutability": "nonpayable",
            "type": "function"
        },
        {
            "inputs": [
                {
                    "internalType": "uint256",
                    "name": "_newCost",
                    "type": "uint256"
                }
            ],
            "name": "setCost",
            "outputs": [],
            "stateMutability": "nonpayable",
            "type": "function"
        },
        {
            "inputs": [
                {
                    "internalType": "string",
                    "name": "_notRevealedURI",
                    "type": "string"
                }
            ],
            "name": "setNotRevealedURI",
            "outputs": [],
            "stateMutability": "nonpayable",
            "type": "function"
        },
        {
            "inputs": [
                {
                    "internalType": "uint256",
                    "name": "_newmaxMintAmount",
                    "type": "uint256"
                }
            ],
            "name": "setmaxMintAmount",
            "outputs": [],
            "stateMutability": "nonpayable",
            "type": "function"
        },
        {
            "inputs": [
                {
                    "internalType": "bytes4",
                    "name": "interfaceId",
                    "type": "bytes4"
                }
            ],
            "name": "supportsInterface",
            "outputs": [
                {
                    "internalType": "bool",
                    "name": "",
                    "type": "bool"
                }
            ],
            "stateMutability": "view",
            "type": "function"
        },
        {
            "inputs": [],
            "name": "symbol",
            "outputs": [
                {
                    "internalType": "string",
                    "name": "",
                    "type": "string"
                }
            ],
            "stateMutability": "view",
            "type": "function"
        },
        {
            "inputs": [
                {
                    "internalType": "uint256",
                    "name": "index",
                    "type": "uint256"
                }
            ],
            "name": "tokenByIndex",
            "outputs": [
                {
                    "internalType": "uint256",
                    "name": "",
                    "type": "uint256"
                }
            ],
            "stateMutability": "view",
            "type": "function"
        },
        {
            "inputs": [
                {
                    "internalType": "address",
                    "name": "owner",
                    "type": "address"
                },
                {
                    "internalType": "uint256",
                    "name": "index",
                    "type": "uint256"
                }
            ],
            "name": "tokenOfOwnerByIndex",
            "outputs": [
                {
                    "internalType": "uint256",
                    "name": "",
                    "type": "uint256"
                }
            ],
            "stateMutability": "view",
            "type": "function"
        },
        {
            "inputs": [
                {
                    "internalType": "uint256",
                    "name": "tokenId",
                    "type": "uint256"
                }
            ],
            "name": "tokenURI",
            "outputs": [
                {
                    "internalType": "string",
                    "name": "",
                    "type": "string"
                }
            ],
            "stateMutability": "view",
            "type": "function"
        },
        {
            "inputs": [],
            "name": "totalSupply",
            "outputs": [
                {
                    "internalType": "uint256",
                    "name": "",
                    "type": "uint256"
                }
            ],
            "stateMutability": "view",
            "type": "function"
        },
        {
            "inputs": [
                {
                    "internalType": "address",
                    "name": "from",
                    "type": "address"
                },
                {
                    "internalType": "address",
                    "name": "to",
                    "type": "address"
                },
                {
                    "internalType": "uint256",
                    "name": "tokenId",
                    "type": "uint256"
                }
            ],
            "name": "transferFrom",
            "outputs": [],
            "stateMutability": "nonpayable",
            "type": "function"
        },
        {
            "inputs": [
                {
                    "internalType": "address",
                    "name": "newOwner",
                    "type": "address"
                }
            ],
            "name": "transferOwnership",
            "outputs": [],
            "stateMutability": "nonpayable",
            "type": "function"
        },
        {
            "inputs": [
                {
                    "internalType": "address",
                    "name": "_owner",
                    "type": "address"
                }
            ],
            "name": "walletOfOwner",
            "outputs": [
                {
                    "internalType": "uint256[]",
                    "name": "",
                    "type": "uint256[]"
                }
            ],
            "stateMutability": "view",
            "type": "function"
        },
        {
            "inputs": [],
            "name": "withdraw",
            "outputs": [],
            "stateMutability": "payable",
            "type": "function"
        }
    ],
    "bytecode": "60c06040526005608090815264173539b7b760d91b60a052600c9062000026908262000289565b50662386f26fc10000600d55612710600e556014600f556010805461ffff191690553480156200005557600080fd5b506040516200299138038062002991833981016040819052620000789162000404565b8383600062000088838262000289565b50600162000097828262000289565b505050620000b4620000ae620000d460201b60201c565b620000d8565b620000bf826200012a565b620000ca816200018b565b50505050620004bd565b3390565b600a80546001600160a01b038381166001600160a01b0319831681179093556040519116919082907f8be0079c531659141344cd1fd0a4f28419497f9722a3daafe3b4186f6b6457e090600090a35050565b600a546001600160a01b03163314620001795760405162461bcd60e51b815260206004820181905260248201526000805160206200297183398151915260448201526064015b60405180910390fd5b600b62000187828262000289565b5050565b600a546001600160a01b03163314620001d65760405162461bcd60e51b8152602060048201819052602482015260008051602062002971833981519152604482015260640162000170565b601162000187828262000289565b634e487b7160e01b600052604160045260246000fd5b600181811c908216806200020f57607f821691505b6020821081036200023057634e487b7160e01b600052602260045260246000fd5b50919050565b601f8211156200028457600081815260208120601f850160051c810160208610156200025f5750805b601f850160051c820191505b8181101562000280578281556001016200026b565b5050505b505050565b81516001600160401b03811115620002a557620002a5620001e4565b620002bd81620002b68454620001fa565b8462000236565b602080601f831160018114620002f55760008415620002dc5750858301515b600019600386901b1c1916600185901b17855562000280565b600085815260208120601f198616915b82811015620003265788860151825594840194600190910190840162000305565b5085821015620003455787850151600019600388901b60f8161c191681555b5050505050600190811b01905550565b600082601f8301126200036757600080fd5b81516001600160401b0380821115620003845762000384620001e4565b604051601f8301601f19908116603f01168101908282118183101715620003af57620003af620001e4565b81604052838152602092508683858801011115620003cc57600080fd5b600091505b83821015620003f05785820183015181830184015290820190620003d1565b600093810190920192909252949350505050565b600080600080608085870312156200041b57600080fd5b84516001600160401b03808211156200043357600080fd5b620004418883890162000355565b955060208701519150808211156200045857600080fd5b620004668883890162000355565b945060408701519150808211156200047d57600080fd5b6200048b8883890162000355565b93506060870151915080821115620004a257600080fd5b50620004b18782880162000355565b91505092959194509250565b6124a480620004cd6000396000f3fe60806040526004361061020f5760003560e01c80635c975abb11610118578063a475b5dd116100a0578063d5abeb011161006f578063d5abeb01146105bc578063da3ef23f146105d2578063e985e9c5146105f2578063f2c4ce1e1461063b578063f2fde38b1461065b57600080fd5b8063a475b5dd14610552578063b88d4fde14610567578063c668286214610587578063c87b56dd1461059c57600080fd5b80637f00c7a6116100e75780637f00c7a6146104cc5780638da5cb5b146104ec57806395d89b411461050a578063a0712d681461051f578063a22cb4651461053257600080fd5b80635c975abb1461045d5780636352211e1461047757806370a0823114610497578063715018a6146104b757600080fd5b806323b872dd1161019b578063438b63001161016a578063438b6300146103b157806344a0d68a146103de5780634f6ccce7146103fe578063518302271461041e57806355f804b31461043d57600080fd5b806323b872dd146103495780632f745c59146103695780633ccfd60b1461038957806342842e0e1461039157600080fd5b8063081c8c44116101e2578063081c8c44146102c5578063095ea7b3146102da57806313faede6146102fa57806318160ddd1461031e578063239c70ae1461033357600080fd5b806301ffc9a71461021457806302329a291461024957806306fdde031461026b578063081812fc1461028d575b600080fd5b34801561022057600080fd5b5061023461022f366004611d2b565b61067b565b60405190151581526020015b60405180910390f35b34801561025557600080fd5b50610269610264366004611d5d565b6106a6565b005b34801561027757600080fd5b506102806106ec565b6040516102409190611dc8565b34801561029957600080fd5b506102ad6102a8366004611ddb565b61077e565b6040516001600160a01b039091168152602001610240565b3480156102d157600080fd5b50610280610813565b3480156102e657600080fd5b506102696102f5366004611e0b565b6108a1565b34801561030657600080fd5b50610310600d5481565b604051908152602001610240565b34801561032a57600080fd5b50600854610310565b34801561033f57600080fd5b50610310600f5481565b34801561035557600080fd5b50610269610364366004611e35565b6109b6565b34801561037557600080fd5b50610310610384366004611e0b565b6109e7565b610269610a7d565b34801561039d57600080fd5b506102696103ac366004611e35565b610b99565b3480156103bd57600080fd5b506103d16103cc366004611e71565b610bb4565b6040516102409190611e8c565b3480156103ea57600080fd5b506102696103f9366004611ddb565b610c56565b34801561040a57600080fd5b50610310610419366004611ddb565b610c85565b34801561042a57600080fd5b5060105461023490610100900460ff1681565b34801561044957600080fd5b50610269610458366004611f5c565b610d18565b34801561046957600080fd5b506010546102349060ff1681565b34801561048357600080fd5b506102ad610492366004611ddb565b610d4e565b3480156104a357600080fd5b506103106104b2366004611e71565b610dc5565b3480156104c357600080fd5b50610269610e4c565b3480156104d857600080fd5b506102696104e7366004611ddb565b610e82565b3480156104f857600080fd5b50600a546001600160a01b03166102ad565b34801561051657600080fd5b50610280610eb1565b61026961052d366004611ddb565b610ec0565b34801561053e57600080fd5b5061026961054d366004611fa5565b610f6d565b34801561055e57600080fd5b50610269611031565b34801561057357600080fd5b50610269610582366004611fd8565b61106c565b34801561059357600080fd5b506102806110a4565b3480156105a857600080fd5b506102806105b7366004611ddb565b6110b1565b3480156105c857600080fd5b50610310600e5481565b3480156105de57600080fd5b506102696105ed366004611f5c565b611235565b3480156105fe57600080fd5b5061023461060d366004612054565b6001600160a01b03918216600090815260056020908152604080832093909416825291909152205460ff1690565b34801561064757600080fd5b50610269610656366004611f5c565b61126b565b34801561066757600080fd5b50610269610676366004611e71565b6112a1565b60006001600160e01b0319821663780e9d6360e01b14806106a057506106a08261133c565b92915050565b600a546001600160a01b031633146106d95760405162461bcd60e51b81526004016106d09061207e565b60405180910390fd5b6010805460ff1916911515919091179055565b6060600080546106fb906120b3565b80601f0160208091040260200160405190810160405280929190818152602001828054610727906120b3565b80156107745780601f1061074957610100808354040283529160200191610774565b820191906000526020600020905b81548152906001019060200180831161075757829003601f168201915b5050505050905090565b6000818152600260205260408120546001600160a01b03166107f75760405162461bcd60e51b815260206004820152602c60248201527f4552433732313a20617070726f76656420717565727920666f72206e6f6e657860448201526b34b9ba32b73a103a37b5b2b760a11b60648201526084016106d0565b506000908152600460205260409020546001600160a01b031690565b60118054610820906120b3565b80601f016020809104026020016040519081016040528092919081815260200182805461084c906120b3565b80156108995780601f1061086e57610100808354040283529160200191610899565b820191906000526020600020905b81548152906001019060200180831161087c57829003601f168201915b505050505081565b60006108ac82610d4e565b9050806001600160a01b0316836001600160a01b0316036109195760405162461bcd60e51b815260206004820152602160248201527f4552433732313a20617070726f76616c20746f2063757272656e74206f776e656044820152603960f91b60648201526084016106d0565b336001600160a01b03821614806109355750610935813361060d565b6109a75760405162461bcd60e51b815260206004820152603860248201527f4552433732313a20617070726f76652063616c6c6572206973206e6f74206f7760448201527f6e6572206e6f7220617070726f76656420666f7220616c6c000000000000000060648201526084016106d0565b6109b1838361138c565b505050565b6109c033826113fa565b6109dc5760405162461bcd60e51b81526004016106d0906120ed565b6109b18383836114f1565b60006109f283610dc5565b8210610a545760405162461bcd60e51b815260206004820152602b60248201527f455243373231456e756d657261626c653a206f776e657220696e646578206f7560448201526a74206f6620626f756e647360a81b60648201526084016106d0565b506001600160a01b03919091166000908152600660209081526040808320938352929052205490565b600a546001600160a01b03163314610aa75760405162461bcd60e51b81526004016106d09061207e565b600073943590a42c27d08e3744202c4ae5ed55c2de240d6064610acb476005612154565b610ad59190612181565b604051600081818185875af1925050503d8060008114610b11576040519150601f19603f3d011682016040523d82523d6000602084013e610b16565b606091505b5050905080610b2457600080fd5b6000610b38600a546001600160a01b031690565b6001600160a01b03164760405160006040518083038185875af1925050503d8060008114610b82576040519150601f19603f3d011682016040523d82523d6000602084013e610b87565b606091505b5050905080610b9557600080fd5b5050565b6109b18383836040518060200160405280600081525061106c565b60606000610bc183610dc5565b905060008167ffffffffffffffff811115610bde57610bde611ed0565b604051908082528060200260200182016040528015610c07578160200160208202803683370190505b50905060005b82811015610c4e57610c1f85826109e7565b828281518110610c3157610c31612195565b602090810291909101015280610c46816121ab565b915050610c0d565b509392505050565b600a546001600160a01b03163314610c805760405162461bcd60e51b81526004016106d09061207e565b600d55565b6000610c9060085490565b8210610cf35760405162461bcd60e51b815260206004820152602c60248201527f455243373231456e756d657261626c653a20676c6f62616c20696e646578206f60448201526b7574206f6620626f756e647360a01b60648201526084016106d0565b60088281548110610d0657610d06612195565b90600052602060002001549050919050565b600a546001600160a01b03163314610d425760405162461bcd60e51b81526004016106d09061207e565b600b610b958282612212565b6000818152600260205260408120546001600160a01b0316806106a05760405162461bcd60e51b815260206004820152602960248201527f4552433732313a206f776e657220717565727920666f72206e6f6e657869737460448201526832b73a103a37b5b2b760b91b60648201526084016106d0565b60006001600160a01b038216610e305760405162461bcd60e51b815260206004820152602a60248201527f4552433732313a2062616c616e636520717565727920666f7220746865207a65604482015269726f206164647265737360b01b60648201526084016106d0565b506001600160a01b031660009081526003602052604090205490565b600a546001600160a01b03163314610e765760405162461bcd60e51b81526004016106d09061207e565b610e80600061169c565b565b600a546001600160a01b03163314610eac5760405162461bcd60e51b81526004016106d09061207e565b600f55565b6060600180546106fb906120b3565b6000610ecb60085490565b60105490915060ff1615610ede57600080fd5b60008211610eeb57600080fd5b600f54821115610efa57600080fd5b600e54610f0783836122d2565b1115610f1257600080fd5b600a546001600160a01b03163314610f3e5781600d54610f329190612154565b341015610f3e57600080fd5b60015b8281116109b157610f5b33610f5683856122d2565b6116ee565b80610f65816121ab565b915050610f41565b336001600160a01b03831603610fc55760405162461bcd60e51b815260206004820152601960248201527f4552433732313a20617070726f766520746f2063616c6c65720000000000000060448201526064016106d0565b3360008181526005602090815260408083206001600160a01b03871680855290835292819020805460ff191686151590811790915590519081529192917f17307eab39ab6107e8899845ad3d59bd9653f200f220920489ca2b5937696c31910160405180910390a35050565b600a546001600160a01b0316331461105b5760405162461bcd60e51b81526004016106d09061207e565b6010805461ff001916610100179055565b61107633836113fa565b6110925760405162461bcd60e51b81526004016106d0906120ed565b61109e84848484611708565b50505050565b600c8054610820906120b3565b6000818152600260205260409020546060906001600160a01b03166111305760405162461bcd60e51b815260206004820152602f60248201527f4552433732314d657461646174613a2055524920717565727920666f72206e6f60448201526e3732bc34b9ba32b73a103a37b5b2b760891b60648201526084016106d0565b601054610100900460ff1615156000036111d65760118054611151906120b3565b80601f016020809104026020016040519081016040528092919081815260200182805461117d906120b3565b80156111ca5780601f1061119f576101008083540402835291602001916111ca565b820191906000526020600020905b8154815290600101906020018083116111ad57829003601f168201915b50505050509050919050565b60006111e061173b565b90506000815111611200576040518060200160405280600081525061122e565b8061120a8461174a565b600c60405160200161121e939291906122e5565b6040516020818303038152906040525b9392505050565b600a546001600160a01b0316331461125f5760405162461bcd60e51b81526004016106d09061207e565b600c610b958282612212565b600a546001600160a01b031633146112955760405162461bcd60e51b81526004016106d09061207e565b6011610b958282612212565b600a546001600160a01b031633146112cb5760405162461bcd60e51b81526004016106d09061207e565b6001600160a01b0381166113305760405162461bcd60e51b815260206004820152602660248201527f4f776e61626c653a206e6577206f776e657220697320746865207a65726f206160448201526564647265737360d01b60648201526084016106d0565b6113398161169c565b50565b60006001600160e01b031982166380ac58cd60e01b148061136d57506001600160e01b03198216635b5e139f60e01b145b806106a057506301ffc9a760e01b6001600160e01b03198316146106a0565b600081815260046020526040902080546001600160a01b0319166001600160a01b03841690811790915581906113c182610d4e565b6001600160a01b03167f8c5be1e5ebec7d5bd14f71427d1e84f3dd0314c0f7b2291e5b200ac8c7c3b92560405160405180910390a45050565b6000818152600260205260408120546001600160a01b03166114735760405162461bcd60e51b815260206004820152602c60248201527f4552433732313a206f70657261746f7220717565727920666f72206e6f6e657860448201526b34b9ba32b73a103a37b5b2b760a11b60648201526084016106d0565b600061147e83610d4e565b9050806001600160a01b0316846001600160a01b031614806114b95750836001600160a01b03166114ae8461077e565b6001600160a01b0316145b806114e957506001600160a01b0380821660009081526005602090815260408083209388168352929052205460ff165b949350505050565b826001600160a01b031661150482610d4e565b6001600160a01b03161461156c5760405162461bcd60e51b815260206004820152602960248201527f4552433732313a207472616e73666572206f6620746f6b656e2074686174206960448201526839903737ba1037bbb760b91b60648201526084016106d0565b6001600160a01b0382166115ce5760405162461bcd60e51b8152602060048201526024808201527f4552433732313a207472616e7366657220746f20746865207a65726f206164646044820152637265737360e01b60648201526084016106d0565b6115d983838361184b565b6115e460008261138c565b6001600160a01b038316600090815260036020526040812080546001929061160d908490612385565b90915550506001600160a01b038216600090815260036020526040812080546001929061163b9084906122d2565b909155505060008181526002602052604080822080546001600160a01b0319166001600160a01b0386811691821790925591518493918716917fddf252ad1be2c89b69c2b068fc378daa952ba7f163c4a11628f55a4df523b3ef91a4505050565b600a80546001600160a01b038381166001600160a01b0319831681179093556040519116919082907f8be0079c531659141344cd1fd0a4f28419497f9722a3daafe3b4186f6b6457e090600090a35050565b610b95828260405180602001604052806000815250611903565b6117138484846114f1565b61171f84848484611936565b61109e5760405162461bcd60e51b81526004016106d090612398565b6060600b80546106fb906120b3565b6060816000036117715750506040805180820190915260018152600360fc1b602082015290565b8160005b811561179b5780611785816121ab565b91506117949050600a83612181565b9150611775565b60008167ffffffffffffffff8111156117b6576117b6611ed0565b6040519080825280601f01601f1916602001820160405280156117e0576020820181803683370190505b5090505b84156114e9576117f5600183612385565b9150611802600a866123ea565b61180d9060306122d2565b60f81b81838151811061182257611822612195565b60200101906001600160f81b031916908160001a905350611844600a86612181565b94506117e4565b6001600160a01b0383166118a6576118a181600880546000838152600960205260408120829055600182018355919091527ff3f7a9fe364faab93b216da50a3214154f22a0a2b415b23a84c8169e8b636ee30155565b6118c9565b816001600160a01b0316836001600160a01b0316146118c9576118c98382611a37565b6001600160a01b0382166118e0576109b181611ad4565b826001600160a01b0316826001600160a01b0316146109b1576109b18282611b83565b61190d8383611bc7565b61191a6000848484611936565b6109b15760405162461bcd60e51b81526004016106d090612398565b60006001600160a01b0384163b15611a2c57604051630a85bd0160e11b81526001600160a01b0385169063150b7a029061197a9033908990889088906004016123fe565b6020604051808303816000875af19250505080156119b5575060408051601f3d908101601f191682019092526119b29181019061243b565b60015b611a12573d8080156119e3576040519150601f19603f3d011682016040523d82523d6000602084013e6119e8565b606091505b508051600003611a0a5760405162461bcd60e51b81526004016106d090612398565b805181602001fd5b6001600160e01b031916630a85bd0160e11b1490506114e9565b506001949350505050565b60006001611a4484610dc5565b611a4e9190612385565b600083815260076020526040902054909150808214611aa1576001600160a01b03841660009081526006602090815260408083208584528252808320548484528184208190558352600790915290208190555b5060009182526007602090815260408084208490556001600160a01b039094168352600681528383209183525290812055565b600854600090611ae690600190612385565b60008381526009602052604081205460088054939450909284908110611b0e57611b0e612195565b906000526020600020015490508060088381548110611b2f57611b2f612195565b6000918252602080832090910192909255828152600990915260408082208490558582528120556008805480611b6757611b67612458565b6001900381819060005260206000200160009055905550505050565b6000611b8e83610dc5565b6001600160a01b039093166000908152600660209081526040808320868452825280832085905593825260079052919091209190915550565b6001600160a01b038216611c1d5760405162461bcd60e51b815260206004820181905260248201527f4552433732313a206d696e7420746f20746865207a65726f206164647265737360448201526064016106d0565b6000818152600260205260409020546001600160a01b031615611c825760405162461bcd60e51b815260206004820152601c60248201527f4552433732313a20746f6b656e20616c7265616479206d696e7465640000000060448201526064016106d0565b611c8e6000838361184b565b6001600160a01b0382166000908152600360205260408120805460019290611cb79084906122d2565b909155505060008181526002602052604080822080546001600160a01b0319166001600160a01b03861690811790915590518392907fddf252ad1be2c89b69c2b068fc378daa952ba7f163c4a11628f55a4df523b3ef908290a45050565b6001600160e01b03198116811461133957600080fd5b600060208284031215611d3d57600080fd5b813561122e81611d15565b80358015158114611d5857600080fd5b919050565b600060208284031215611d6f57600080fd5b61122e82611d48565b60005b83811015611d93578181015183820152602001611d7b565b50506000910152565b60008151808452611db4816020860160208601611d78565b601f01601f19169290920160200192915050565b60208152600061122e6020830184611d9c565b600060208284031215611ded57600080fd5b5035919050565b80356001600160a01b0381168114611d5857600080fd5b60008060408385031215611e1e57600080fd5b611e2783611df4565b946020939093013593505050565b600080600060608486031215611e4a57600080fd5b611e5384611df4565b9250611e6160208501611df4565b9150604084013590509250925092565b600060208284031215611e8357600080fd5b61122e82611df4565b6020808252825182820181905260009190848201906040850190845b81811015611ec457835183529284019291840191600101611ea8565b50909695505050505050565b634e487b7160e01b600052604160045260246000fd5b600067ffffffffffffffff80841115611f0157611f01611ed0565b604051601f8501601f19908116603f01168101908282118183101715611f2957611f29611ed0565b81604052809350858152868686011115611f4257600080fd5b858560208301376000602087830101525050509392505050565b600060208284031215611f6e57600080fd5b813567ffffffffffffffff811115611f8557600080fd5b8201601f81018413611f9657600080fd5b6114e984823560208401611ee6565b60008060408385031215611fb857600080fd5b611fc183611df4565b9150611fcf60208401611d48565b90509250929050565b60008060008060808587031215611fee57600080fd5b611ff785611df4565b935061200560208601611df4565b925060408501359150606085013567ffffffffffffffff81111561202857600080fd5b8501601f8101871361203957600080fd5b61204887823560208401611ee6565b91505092959194509250565b6000806040838503121561206757600080fd5b61207083611df4565b9150611fcf60208401611df4565b6020808252818101527f4f776e61626c653a2063616c6c6572206973206e6f7420746865206f776e6572604082015260600190565b600181811c908216806120c757607f821691505b6020821081036120e757634e487b7160e01b600052602260045260246000fd5b50919050565b60208082526031908201527f4552433732313a207472616e736665722063616c6c6572206973206e6f74206f6040820152701ddb995c881b9bdc88185c1c1c9bdd9959607a1b606082015260800190565b634e487b7160e01b600052601160045260246000fd5b80820281158282048414176106a0576106a061213e565b634e487b7160e01b600052601260045260246000fd5b6000826121905761219061216b565b500490565b634e487b7160e01b600052603260045260246000fd5b6000600182016121bd576121bd61213e565b5060010190565b601f8211156109b157600081815260208120601f850160051c810160208610156121eb5750805b601f850160051c820191505b8181101561220a578281556001016121f7565b505050505050565b815167ffffffffffffffff81111561222c5761222c611ed0565b6122408161223a84546120b3565b846121c4565b602080601f831160018114612275576000841561225d5750858301515b600019600386901b1c1916600185901b17855561220a565b600085815260208120601f198616915b828110156122a457888601518255948401946001909101908401612285565b50858210156122c25787850151600019600388901b60f8161c191681555b5050505050600190811b01905550565b808201808211156106a0576106a061213e565b6000845160206122f88285838a01611d78565b85519184019161230b8184848a01611d78565b855492019160009061231c816120b3565b60018281168015612334576001811461234957612375565b60ff1984168752821515830287019450612375565b896000528560002060005b8481101561236d57815489820152908301908701612354565b505082870194505b50929a9950505050505050505050565b818103818111156106a0576106a061213e565b60208082526032908201527f4552433732313a207472616e7366657220746f206e6f6e20455243373231526560408201527131b2b4bb32b91034b6b83632b6b2b73a32b960711b606082015260800190565b6000826123f9576123f961216b565b500690565b6001600160a01b038581168252841660208201526040810183905260806060820181905260009061243190830184611d9c565b9695505050505050565b60006020828403121561244d57600080fd5b815161122e81611d15565b634e487b7160e01b600052603160045260246000fdfea2646970667358221220cae8f8639a8eb961259ce051a3a7dc8c2d7decff9a876a77c387fa6fe91e56fd64736f6c634300081100334f776e61626c653a2063616c6c6572206973206e6f7420746865206f776e6572",
    "sourcePath": "d:/workspace/github/Solidity/truffle-project/contracts/MyNFT.sol",
    "compiler": {
        "name": "solc",
        "version": "0.8.17+commit.8df45f5f"
    },
    "functionHashes": {
        "approve(address,uint256)": "095ea7b3",
        "balanceOf(address)": "70a08231",
        "baseExtension()": "c6682862",
        "cost()": "13faede6",
        "getApproved(uint256)": "081812fc",
        "isApprovedForAll(address,address)": "e985e9c5",
        "maxMintAmount()": "239c70ae",
        "maxSupply()": "d5abeb01",
        "mint(uint256)": "a0712d68",
        "name()": "06fdde03",
        "notRevealedUri()": "081c8c44",
        "owner()": "8da5cb5b",
        "ownerOf(uint256)": "6352211e",
        "pause(bool)": "02329a29",
        "paused()": "5c975abb",
        "renounceOwnership()": "715018a6",
        "reveal()": "a475b5dd",
        "revealed()": "51830227",
        "safeTransferFrom(address,address,uint256)": "42842e0e",
        "safeTransferFrom(address,address,uint256,bytes)": "b88d4fde",
        "setApprovalForAll(address,bool)": "a22cb465",
        "setBaseExtension(string)": "da3ef23f",
        "setBaseURI(string)": "55f804b3",
        "setCost(uint256)": "44a0d68a",
        "setNotRevealedURI(string)": "f2c4ce1e",
        "setmaxMintAmount(uint256)": "7f00c7a6",
        "supportsInterface(bytes4)": "01ffc9a7",
        "symbol()": "95d89b41",
        "tokenByIndex(uint256)": "4f6ccce7",
        "tokenOfOwnerByIndex(address,uint256)": "2f745c59",
        "tokenURI(uint256)": "c87b56dd",
        "totalSupply()": "18160ddd",
        "transferFrom(address,address,uint256)": "23b872dd",
        "transferOwnership(address)": "f2fde38b",
        "walletOfOwner(address)": "438b6300",
        "withdraw()": "3ccfd60b"
    },
    "gasEstimates": {
        "creation": {
            "codeDepositCost": "1876000",
            "executionCost": "infinite",
            "totalCost": "infinite"
        },
        "external": {
            "approve(address,uint256)": "infinite",
            "balanceOf(address)": "2679",
            "baseExtension()": "infinite",
            "cost()": "2385",
            "getApproved(uint256)": "4805",
            "isApprovedForAll(address,address)": "infinite",
            "maxMintAmount()": "2429",
            "maxSupply()": "2339",
            "mint(uint256)": "infinite",
            "name()": "infinite",
            "notRevealedUri()": "infinite",
            "owner()": "2398",
            "ownerOf(uint256)": "2624",
            "pause(bool)": "26738",
            "paused()": "2345",
            "renounceOwnership()": "28229",
            "reveal()": "26553",
            "revealed()": "2421",
            "safeTransferFrom(address,address,uint256)": "infinite",
            "safeTransferFrom(address,address,uint256,bytes)": "infinite",
            "setApprovalForAll(address,bool)": "infinite",
            "setBaseExtension(string)": "infinite",
            "setBaseURI(string)": "infinite",
            "setCost(uint256)": "24531",
            "setNotRevealedURI(string)": "infinite",
            "setmaxMintAmount(uint256)": "24509",
            "supportsInterface(bytes4)": "infinite",
            "symbol()": "infinite",
            "tokenByIndex(uint256)": "6804",
            "tokenOfOwnerByIndex(address,uint256)": "4998",
            "tokenURI(uint256)": "infinite",
            "totalSupply()": "2404",
            "transferFrom(address,address,uint256)": "infinite",
            "transferOwnership(address)": "28444",
            "walletOfOwner(address)": "infinite",
            "withdraw()": "infinite"
        },
        "internal": {
            "_baseURI()": "infinite"
        }
    }
}